:100000000C942A000C9447000C9447000C94470071
:100010000C9447000C9447000C9447000C94470044
:100020000C9447000C9447000C9447000C94470034
:100030000C9447000C9447000C9447000C94470024
:100040000C9447000C9447000C9447000C94470014
:100050000C94470011241FBECFE5D4E0DEBFCDBF16
:1000600010E0A0E6B0E0E0E3F1E002C005900D9200
:10007000A036B107D9F710E0A0E6B0E001C01D92AC
:10008000A036B107E1F70E9449000C9496000C9449
:1000900000009FEF94BB8CEF8ABB97BBAFEF75E07E
:1000A00058E04AE028EC30E062E0A8BB89B3893030
:1000B00059F418BA78BB58BB48BB88E893E1F901FA
:1000C0003197F1F70197D9F789B3882341F448BBF9
:1000D00080E197E2F9013197F1F70197D9F789B3F8
:1000E000823081F458BB80E197E2F9013197F1F752
:1000F0000197D9F748BB80E197E2F9013197F1F711
:100100000197D9F789B3813081F668BB80E197E226
:10011000F9013197F1F70197D9F748BB80E197E2F0
:10012000F9013197F1F70197D9F7BFCFF894FFCFD5
:00000001FF
